:020000040800F2
:1000000090040020C5010008CF100008AB0F0008C5
:10001000CD100008D10200081313000800000000F2
:10002000000000000000000000000000D3100008E5
:10003000D302000800000000D1100008D51000080D
:10004000DF010008DF010008DF010008DF01000810
:10005000DF010008DF010008DF010008DF01000800
:10006000DF010008DF010008DF010008DF010008F0
:10007000DF010008DF010008DF010008DF010008E0
:10008000DF010008DF010008DF010008DF010008D0
:10009000DF010008DF010008DF010008DF010008C0
:1000A000DF010008DF010008DF010008DF010008B0
:1000B000DF010008DF010008DF010008DF010008A0
:1000C000DF010008DF010008DF010008DF01000890
:1000D000DF010008DF010008DF010008DF01000880
:1000E000DF010008DF010008DF010008DF01000870
:1000F000DF010008DF010008DF010008DF01000860
:10010000DF010008DF010008DF010008DF0100084F
:10011000DF010008DF01000889110008DF01000885
:10012000DF010008DF010008DF010008DF0100082F
:10013000DF010008DF010008DF010008DF0100081F
:10014000DF010008DF010008DF010008DF0100080F
:10015000DF010008DF010008DF010008DF010008FF
:10016000DF010008DF010008DF010008DF010008EF
:10017000DF010008DF010008DF01000800000000C7
:10018000DF010008DF010008DF010008DF010008CF
:10019000DF010008DF010008DF010008DF010008BF
:1001A0000000000000000000DF010008DFF810D0B0
:1001B00000F07CF80048004753130008AFF30080BC
:1001C000900400200648804706480047FEE7FEE707
:1001D000FEE7FEE7FEE7FEE7FEE7FEE7FEE7FEE7F7
:1001E0006D110008AD0100082DE9F05F0546002003
:1001F00092469B4688460646814640241BE0284698
:1002000041464746224600F041F853465A46C01A36
:10021000914110D311461846224600F028F82D1AB5
:1002200067EB01084F4622460120002100F01FF82D
:1002300017EB00094E41201EA4F10104DFDC484603
:1002400031462A464346BDE8F09FD2B201E000F8AD
:10025000012B491EFBD270470022F6E710B513466A
:100260000A4604461946FFF7F0FF204610BD202A33
:1002700004DB203A00FA02F1002070479140C2F1FD
:10028000200320FA03F3194390407047202A04DB2F
:10029000203A21FA02F00021704721FA02F3D040FF
:1002A000C2F120029140084319467047064C074DA1
:1002B00006E0E06840F0010394E807009847103436
:1002C000AC42F6D3FFF776FF7C1300089C130008BE
:1002D000FEE770472DE9F84F00224FF00108032593
:1002E0004FF00F0E0B6808FA02F42340A3426ED1C0
:1002F0004E68012E05D0022E03D0112E01D0122EF1
:1003000012D186684FEA420C05FA0CF7BE43CF685B
:1003100007FA0CF7374387604668A6430C79C4F3A5
:100320000014944034434460C668570005FA07FC43
:100330008C6826EA0C06BC403443C4604C68022C2E
:1003400001D0122C13D1D40800EB8404A346D4F8B6
:10035000209054074FEAD46A0EFA0AF629EA0609F1
:100360000E6906FA0AF646EA0906CBF82060046828
:100370000E7924EA0C0406F00306BE40264306600C
:100380004C68E4006FD53B4C266846F480462660F6
:10039000246822F0030604F480440094364C34446C
:1003A000A446D4F808489607360F0EFA06F7BC4361
:1003B000324FB84201D100272EE0314FB84201D16F
:1003C000012729E02F4FB84202D1022724E04AE05A
:1003D0002D4FB84201D103271EE02C4FB84201D166
:1003E000042719E02A4FB84201D1052714E0294F0C
:1003F000B84201D106270FE0274FB84201D10727A5
:100400000AE0264FB84201D1082705E0244FB84240
:1004100001D1092700E00A27B7402743CCF8087824
:10042000204E34684F689C43FF0300D51C43346062
:100430001C4E361D34684F689C43BF0300D51C43D7
:100440003460184E083634684F689C43FF0200D56C
:100450001C433460134E0C3634684F689C43BF0213
:1004600000D51C433460521C102AFFF43BAFBDE89A
:10047000F88F000044380240003001400000024084
:100480000004024000080240000C0240001002403C
:100490000014024000180240001C024000200240EC
:1004A00000240240003C01400AB181617047090408
:1004B000FBE7000001488068704700000000002052
:1004C0000248816802781144816070470000002072
:1004D0000B4810B5016841F400710160016841F4F6
:1004E00080610160016841F480710160032000F0C7
:1004F00089F8002000F006F800F03EF8002010BD5A
:10050000003C024010B5014688B00022362000F0C1
:1005100059F8362000F048F813480024016841F0EB
:1005200010010160006805A900F0100006906846FF
:1005300000F014F900F032F90C494000B0FBF1F181
:100540000C480B4A491E026040F2E732C0E903241E
:10055000C0E9011400F05CFB10B1012008B010BD2F
:10056000044800F071FBF9E74038024040420F00B8
:1005700000100040500000200A4808B5016841F40E
:1005800080410160006800F4804000900548001F31
:10059000016841F080510160006800F080500090D7
:1005A00008BD000044380240002809DB00F01F02AB
:1005B000012191404009800000F1E020C0F80011C5
:1005C00070470000F0B40E4B1B680C46C3F30223C7
:1005D000C3F10705042D00D90425191D072901D2EF
:1005E000002300E0DB1E012606FA05F1491E21402A
:1005F00099409E40761E16403143F0BC00F08ABE02
:100600000CED00E0064900F0070208684FF6FF0312
:10061000184040EA0220034A104308607047000077
:100620000CED00E00000FA052DE9F0470E4605004C
:1006300065D0DFF81481D8F80000F7B200F00F00A1
:10064000B04207D288F80070D8F8000000F00F0020
:10065000B04254D128683D4C810712D5400703D5DC
:10066000206840F4E05020602878000703D5206817
:1006700040F4604020602068A96820F0F000084342
:1006800020602878C0072DD03049686808390128D3
:1006900012D0022813D0032811D009688907002935
:1006A0002DDA216821F0030101432160FFF702FFE9
:1006B000814641F2883A0EE009688903EFE709684C
:1006C0008901ECE7FFF7F6FEA0EB0901514502D9DD
:1006D0000320BDE8F0872068696800F00C00B0EBEB
:1006E000810FEFD1D8F80010404601F00F01B14260
:1006F00007D90770006800F00F00B04201D0012058
:10070000E7E72878400705D52068E96820F4E0503D
:10071000084320602878000706D52068296920F45E
:10072000604040EAC100206000F048F82168084AB3
:10073000C1F30311515CC8400649086006480068CF
:10074000FFF7E0FE0020C4E7003C0240083802400A
:10075000641300080C000020040000200F22026037
:100760000C4A136803F003034360136803F0F003BB
:100770008360136803F4E053C36012684FF4E053DE
:1007800003EAD20202610448006800F00F0008602A
:100790007047000008380240003C02400448054908
:1007A00000680968044AC1F38221515CC84070475F
:1007B0000C0000200838024074130008154810B5DA
:1007C000006810F00C02144813D01449042A0FD00A
:1007D000082A0ED10F4C241F2268236802F03F0222
:1007E0005B0207D52068C0F38810A0FB010106E07A
:1007F000084610BD2168C1F38811A1FB0001002348
:10080000FFF7F2FC2168C1F30141491C4900B0FB2C
:10081000F1F010BD083802400024F400001BB700BE
:100820002DE9F84F04006ED02078DFF83C93C00724
:10083000A9F104054AD009F104000168C1F381015E
:10084000012908D00068C0F3810002280AD1D9F834
:100850000000400206D52868800337D5606800286C
:10086000E1D033E06068B0F5803F10D0B0F5A02F44
:10087000286810D020F480302860286820F4802078
:1008800028606068A8B1FFF715FE06460DE02868ED
:1008900040F48030F4E740F480202860F7E700BFA0
:1008A000FFF708FE801B642873D828688003F7D5FB
:1008B0000CE0FFF7FFFD064605E000BFFFF7FAFD7D
:1008C000801B6428F0D828688003F7D42078DFF8EC
:1008D0009C8280074FF0000A3ED5A348001D0168A6
:1008E00011F00C0F08D00068C0F3810002280BD172
:1008F000D9F80000400207D42868800716D5E068C0
:10090000012800D112E02BE1E068B8B10120C8F85D
:100910000000FFF7CFFD064605E000BFFFF7CAFD68
:10092000801B0228C0D828688007F7D5286821696D
:1009300020F0F80040EAC10028600DE0C8F800A0EF
:10094000FFF7B8FD064604E0FFF7B4FD801B022860
:100950001FD828688007F7D42078000722D5824E58
:1009600083486169703671B101210160FFF7A2FD12
:10097000074604E0FFF79EFDC01B022809D8306837
:100980008007F7D50EE0C0F800A0FFF793FD0746FB
:1009900005E082E0FFF78EFDC01B02287DD830689D
:1009A0008007F7D42078400768D5DFF8BCB100276E
:1009B0000BF13C0BDBF80000C0000BD4DBF800109F
:1009C00041F08051CBF80010DBF80000012700F067
:1009D00080500090674E3068C00510D4306840F4F5
:1009E00080703060FFF766FD009005E0FFF762FD64
:1009F0000099401A022850D83068C005F6D55A4EE2
:100A0000A0686C3601280FD00528306810D020F07F
:100A100001003060306820F004003060A068B8B198
:100A2000FFF748FD00900FE0306840F00100F4E768
:100A300040F004003060F7E7FFF73CFD0099411AF1
:100A400041F28830814266D830688007F4D50EE0E4
:100A5000FFF730FD009007E0FFF72CFD0099411AE9
:100A600041F28830814256D830688007F4D42FB1E3
:100A7000DBF8001021F08051CBF80010A069C8B35A
:100A80003949091D0968C1F3810102294AD00228A8
:100A9000504607D0C8F8600000E03CE0FFF70AFDD0
:100AA00004463BE04746C8F86000FFF703FD0646F2
:100AB00005E000BFFFF7FEFC801B02282BD828684A
:100AC0008001F7D4D4E907010843A16A2A4A4908FA
:100AD00002EB0141626A41EA8211084394F82C104A
:100AE00040EA0161C9F8001001203866FFF7E2FC16
:100AF000044606E036E000BFFFF7DCFC001B0228DE
:100B000009D828688001F7D52CE000BFFFF7D2FC98
:100B1000001B022802D90320BDE8F88F2868800155
:100B2000F4D41FE00128F7D0D9F80000E26900F4FE
:100B30008001914214D1226A00F03F0191420FD10D
:100B400047F6C071626A0140914209D1A26A00F47D
:100B50004031914204D1E16A00F07060884201D0D6
:100B60000120D9E70020D7E70438024000004742BF
:100B7000800E4742007000400000FFFF7047704742
:100B800070B590F83C20012A32D0012480F83C4016
:100B9000022280F83D2003685A689D6822F07006A2
:100BA0000A6832435A60134B02689A4214D0B2F179
:100BB000804F11D0104B9A420ED0104B9A420BD05E
:100BC0000F4B9A4208D00F4B9A4205D00E4B9A42D7
:100BD00002D00E4B9A4204D1496825F08003194394
:100BE000916080F83D40002180F83C10084670BDBF
:100BF000022070BD000001400004004000080040D9
:100C0000000C00400004014000400140001800407A
:100C100010B5040003D094F83D0010B107E00120A6
:100C200010BD002084F83C00204600F00CF80220A3
:100C300084F83D00211D206800F0ACFA012084F802
:100C40003D00002010BD70470168CA6842F00102F3
:100C5000CA600068816801F00701062903D00168B5
:100C600041F0010101600020704770472DE9F0411B
:100C7000044690F83C000D4601283DD0012684F83A
:100C80003C60022084F83D00AAB3042A46D02068C4
:100C9000082A55D0D5E90027E968036A23F4805370
:100CA0000362D0F81CC0036A2CF4407C4CEA07278E
:100CB0004FF6FF7C27F470470CEA013139434FF4BB
:100CC000204723F4204307EA02321A43C16102623B
:100CD0002068C16921F44061C1612068C169AA68C6
:100CE00041EA0221C0F81C1084F83D60002084F81D
:100CF0003C00BDE8F08101E00220FAE7D5E90012EE
:100D0000EB68206800F0AAFA2068816921F00C01E4
:100D1000816120688169AA6811430FE0D5E900125A
:100D2000EB68206800F0DAFA2068816921F44061FC
:100D3000816120688169AA6841EA02218161D3E763
:100D4000D5E9002C2F7B016A21F480710162C16911
:100D5000036A21F0030141EA0C0121F0F00C39078C
:100D60004FF420674CEA116123F4206307EA022262
:100D70001A43C16102622068C16921F00C01C1619E
:100D80002068C169AA681143ACE710B5040003D01C
:100D900094F83D0010B107E0012010BD002084F858
:100DA0003C00204600F00CF8022084F83D00211D94
:100DB000206800F0EFF9012084F83D00002010BD0C
:100DC00010B586B0044614216846FFF745FA13496A
:100DD0002068884220D112480021026842F00102B6
:100DE0000260006800F0010005900D4814380268A8
:100DF00042F001020260006800F0010005904FF42B
:100E0000C06000900220CDE901010120CDE903106E
:100E100069460448FFF75EFA06B010BD00000140C5
:100E2000443802400000024070B504460068016981
:100E30004FF00005C943890715D4C168C943890724
:100E400011D4E91E016101202077206880698007A4
:100E5000204602D0FFF709FF04E000F098F8204692
:100E600000F096F8257720680169C943490717D42F
:100E7000C168C943490713D46FF00401016102201E
:100E800020772068806910F4407F204602D0FFF769
:100E9000ECFE04E000F07BF8204600F079F82577BE
:100EA00020680169C943090716D4C168C943090705
:100EB00012D46FF008010161042020772068C06916
:100EC0008007204602D0FFF7D0FE04E000F05FF874
:100ED000204600F05DF8257720680169C943C906FE
:100EE00017D4C168C943C90613D46FF0100101615A
:100EF000082020772068C06910F4407F204602D087
:100F0000FFF7B3FE04E000F042F8204600F040F89E
:100F1000257720680169C943C90708D1C168C94359
:100F2000C90704D1891E0161204600F033F820680A
:100F30000169C943090609D4C168C943090605D432
:100F40006FF0800101612046FFF718FE20680169FB
:100F5000C943490609D4C168C943490605D46FF09D
:100F600040010161204600F01FF820680169C94373
:100F700089060BD4C168C943890607D46FF02001E4
:100F800001612046BDE87040FFF7F9BD70BD7047B4
:100F90007047000000680349884201D1FFF790BA0A
:100FA00070470000001000407047FEE770B586B043
:100FB00014216846FFF750F919480024016841F0F0
:100FC00001010160016801F001010591016841F032
:100FD00020010160016801F020010591016841F0E4
:100FE0008001016000680F4E00F080000590002233
:100FF00002213046FFF758FA0125CDE90054694631
:1010000030460294FFF766F902200090CDE90154C2
:10101000694630460394FFF75DF906B070BD0000E5
:10102000303802400014024030B587B00024264812
:101030000594049400940194029422490394C0E915
:1010400000144FF6FF71C0E90241046144618461FC
:10105000FFF79BFE08B172B6FEE7049404A91A4894
:101060000594FFF78DFD08B172B6FEE70225CDE9C4
:10107000004502940022694613480394FFF7F6FDE9
:1010800008B172B6FEE701200190042269460E48BD
:10109000FFF7ECFD08B172B6FEE7082269460A4880
:1010A000FFF7E4FD08B172B6FEE70C226946064878
:1010B0000195FFF7DBFD002801D072B6FEE707B00F
:1010C00030BD00000000014010000020FEE7FEE7F8
:1010D000704770477047000030B593B030216846C4
:1010E000FFF7BAF814210CA8FFF7B6F81D48002541
:1010F000016841F080510160006800F0805011905B
:101100001948016841F4404101600068022400F47C
:101110004040119001200090000401908001CDE931
:10112000064006200890A820CDE9090404200B9071
:101130006846FFF775FB08B172B6FEE70CA90F20F1
:1011400081E831004FF4A0500F904FF48050109080
:1011500005210CA8FFF768FA002801D072B6FEE757
:1011600013B030BD403802400070004005480168AF
:1011700041F47001016003494FF00060803908605C
:101180007047000088ED00E00148FFF74DBE000009
:1011900050000020F0B50268254C264D264E274F02
:1011A000274B4FF0804CA04209D0604507D0A842A1
:1011B00005D0B04203D0B84201D0984204D122F009
:1011C000700E4A6842EA0E02A0421BD0604519D058
:1011D000A84217D0B04215D0B84213D0984211D0CF
:1011E000184DA8420ED0184DA8420BD0174DA8425A
:1011F00008D0174DA84205D0164DA84202D0164D72
:10120000A84203D122F44075CA682A434D6922F0EE
:1012100080022A4302608A68C2620A688262A0422F
:1012200001D0984201D10969016301214161F0BDFA
:10123000000001400004004000080040000C004095
:1012400000040140004001400044014000480140CA
:1012500000180040001C00400020004070B5046AE7
:1012600024F0010404628469056A154EB04214D06A
:10127000B0F1804F11D0134EB0420ED0124EB0429A
:101280000BD0124EB04208D0114EB04205D0114ED4
:10129000B04202D0104EB04203D124F003041443F4
:1012A00001E044F001041A0724F0F00444EA126259
:1012B00025F00A0301F00A0119438261016270BD41
:1012C000000001400004004000080040000C004005
:1012D00000040140004001400018004030B5046A9D
:1012E00024F0100404628469056A24F4407444EA1A
:1012F000022222F470444FF6FF7202EA03322243C4
:10130000A02425F0A00304EA0111194382610162BF
:1013100030BDFEE70907090E002804DB00F1E020DC
:1013200080F80014704700F00F0000F1E02080F812
:10133000141D704702E008C8121F08C1002AFAD124
:1013400070477047002001E001C1121F002AFBD145
:101350007047FFF7BDF8FFF7BFFEFFF727FEFFF767
:1013600063FEFEE70000000000000000010203042D
:101370000607080900000000010203049C1300088E
:10138000000000201000000034130008AC13000817
:101390001000002080040000441300080100000039
:0C13A00010000000000000000024F40019
:04000005080001AD41
:00000001FF
